S00B00006C64722E73726563D7
S31508000000FC4F0020151B0008690100085101000873
S31508000010570100085D0100086301000800000000A0
S315080000200000000000000000000000006901000850
S31508000030690100080000000069010008690100085C
S31508000040690100086901000869010008000000004C
S3150800005069010008690100086901000869010008CA
S3150800006069010008690100086901000869010008BA
S31508000070000000006901000869010008000000008E
S31508000080690100086901000869010008812E000855
S31508000090992E0008AD2E00086901000869010008BC
S315080000A0690100086901000869010008690100087A
S315080000B069010008000000006901000869010008DC
S315080000C0690100086901000869010008690100085A
S315080000D000000000DD1B000869010008690100082E
S315080000E069010008000000006901000869010008AC
S315080000F0690100086901000869010008690100082A
S315080001006901000869010008690100086901000819
S3150800011000000000000000006901000869010008ED
S31508000120690100086901000869010008000000006B
S3150800013008B501F0EFFCFEE70000A002030000008E
S31508000140E120000800000000000000000000000098
S31508000150012002F038B8022002F035B8032002F078
S3150800016032B8042002F02FB8052002F02CB8054A50
S315080001704FF0FF33136053609360034B034A1A60D2
S31508000180704700BF80E100E008ED00E000000008CD
S31508000190084601F059BD024A024B1A60FEE700BF45
S315080001A00400FA050CED00E0064B1A68012303FA71
S315080001B000F002420DBF044B044B80B2186018BF12
S315080001C0188070470C180140101801401418014097
S315080001D02DE9F74F7E4C22682368920043F080731E
S315080001E0236002D57B4B1B68984701F0B3FF01F0EB
S315080001F03FFA02F039FA02F0B9F9774B80221A80F1
S3150800020001F002FB04226023009219464FF4E13004
S3150800021001F0A0FC714801F033FD01F047FD70497B
S31508000220002001F049FC6F4B6F4D19686F48B1FB10
S31508000230F5F101F047FC6E4B6E4819686E4EB1FB3E
S31508000240F5F101F03FFC01F031FD6C4B6C48196883
S31508000250DFF80082B1FBF5F101F034FC316869483A
S31508000260B1FBF5F101F02EFC2168674801F02AFC84
S315080002702368664843F080732360216801F022FCF6
S315080002802368634843F060432360216801F01AFC41
S315080002900121002001F038FF4FF028715D4801F078
S315080002A05DFFC8F8000028B95B4801F00BFC01F0B7
S315080002B0FDFCFEE790F99010002905DA574801F091
S315080002C001FC01F0F3FCFEE74FF0287103F06EF82D
S315080002D002F036FC4FF0287000F0F0F94FF0287164
S315080002E04F4801F0EFFB01F0E1FC4E4B394F1B88FC
S315080002F04D48B3F5807F94BF4FF480614FF4006199
S3150800030001F0E0FB01F0D2FC3B684848D3F807103F
S31508000310474D01F0D7FB01F0C9FC33682A684FF056
S315080003200609B3FBF9F903EB830303EB020AD8F8D2
S315080003300000002308223F4902F032FC3E4B00220F
S315080003409B461A602A6809EB02082B68C3EB080368
S31508000350002B03DA0320C844FFF726FF00F01EFD32
S31508000360DBF80030002BF0D12B68C3EB0A03002B17
S31508000370EBDA3A68BA4202D3304B9A4211D9154998
S315080003802F4801F09FFB01F091FC2B68326803EBC4
S3150800039052022B68D31A002BFBDC2A4A2A4B1A6016
S315080003A0FEE7236843F00103236023689B07FCD517
S315080003B045F25552254B00211A60254A1160022143
S315080003C051604AF6AA221A604CF6CC421A60FEE739
S315080003D0241002400450000814140140CC340008CC
S315080003E091010008E010002040420F000535000882
S315080003F0DC1000201F350008D4100020D81000207B
S3150800040039350008533500086D3500089A35000857
S31508000410D9350008F03900081836000835360008BE
S3150800042059360008E0F7FF1F6C3600087D360008CD
S31508000430041000E0003A0008C0100020000004087C
S31508000440933600080400FA050CED00E00030004081
S3150800045004300040500800204FF0FF307047034B2F
S315080004600C221A604FF0FF30704700BF9019002029
S31508000470024B0B221A604FF0FF307047901900208C
S315080004804FF400534B600020704701207047022844
S3150800049081BF034B092200201A6098BF01207047CC
S315080004A090190020024B16221A604FF0FF30704751
S315080004B090190020024B1F221A604FF0FF30704738
S315080004C09019002000207047044B0246196809B9A4
S315080004D003491960186802441A60704754080020D6
S315080004E09419002020B1034B09221A604FF0FF30FF
S315080004F0704700BF901900204FF400534B6000204E
S3150800050070474FF0FF307047024B02221A604FF0D7
S31508000510FF30704790190020024B0A221A604FF0EC
S31508000520FF30704790190020012870B50D46144613
S3150800053003D0022823D10E461CE00E46731BA342A5
S315080005401BDA307801F080FB16F8013B0A2BF5D14F
S315080005500D2001F079FB01F0A9FBEFE7307801F0F7
S3150800056073FB16F8013B0A2B04D10D2001F06CFB36
S3150800057001F09CFB731B9C42F0DC204670BD034BCC
S3150800058009221A604FF0FF3070BD00BF9019002095
S3150800059008B5042202490120FFF7C6FFFEE700BF9F
S315080005A0C83600080F4B10481A6830B5046851421F
S315080005B021408B18C0F80C38641A00F108031C4453
S315080005C0C0F8104822F007020024C0F80818A0F85E
S315080005D014481A449A4204D9F1E80245E3E8024568
S315080005E0F8E730BD040000206008002001460348F3
S315080005F000230422006802F0D3BA00BF5008002086
S3150800060037B5C368254C01938368D4F81818009346
S3150800061043682268224801F055FA01F047FBB4F80E
S315080006201418032931D8DFE801F0021106061D481F
S3150800063001F048FA2CE01C4801F044FA01F036FBB8
S31508000640D4F8080801F0BAFE84F82A08174B134DA7
S315080006501A6805F10801D4F8080801F03BFE84F889
S315080006602908134801F02EFA01F020FBD4F828389F
S3150800067023F07F4323F0FF0353B195F82A2895F812
S3150800068029180C4801F01EFA02E00B4801F01AFA84
S3150800069003B0BDE8304001F009BB00BF6008002088
S315080006A0CE360008EA360008123700080400002093
S315080006B03E3700085D3700087A37000838B5054622
S315080006C0214C4FF000632360204B214A1B882148A8
S315080006D0B3F5807F8CBF4FF400614FF480611160E1
S315080006E09B02116803F100631B4AC4F830380023E3
S315080006F0C4F81028C4F80838A4F8143801F0E2F948
S31508000700D4F83018154801F0DDF945F0404045F0B9
S315080007103043C4F848081248C4F83838C4F8205892
S3150800072001F0D0F9D4F820180E4801F0CBF9D4F826
S3150800073038180D4801F0C6F9D4F848180B48BDE832
S31508000740384001F0BFB900BF60080020E0F7FF1F7E
S31508000750040000208F37000868080020A537000825
S31508000760BB370008C6370008D2370008DE3700084E
S315080007704278007840EA022070470068704743686C
S3150800078030B403F00F03082B28BF082307330749A3
S31508000790C21D03449A4206D00C68651C0D60247875
S315080007A002F8014FF6E730BC20E700BF60080020DA
S315080007B041F60E020A4B034493420BD9B0F1006F7F
S315080007C00AD3084B1B68B0EB832F8CBF4FF0FF3062
S315080007D000207047002070474FF0FF30704700BF79
S315080007E0FF1F00E0E0F7FF1F08292DE9FF4706462F
S315080007F00D4617466C4C15DD0123C4F8243804F55C
S315080008000260052384F82838FFF7F0FEFB682268A3
S315080008100293BB68D4F8181801937B686348009361
S315080008202B461CE0D4F8583803BBD4F85C3804F5DA
S3150800083002600133C4F85C380123C4F82438052360
S3150800084084F82838FFF7D2FEFB6822680293BB6853
S31508000850D4F8181801937B68554800932B4601F085
S3150800086031F904B0BDE8F04701F020BA2368B3F1C6
S31508000870006F49D3D4F830289A4245D98146A04614
S31508000880DFF834A17319C9EB03035BB2002B66DDED
S31508000890DAF800302268D4F808185B4213408B4215
S315080008A009D0444801F00EF901F000FA3846FFF77E
S315080008B0A7FEFFF777FE226899F800101378994289
S315080008C016D0D8F8603822F0010243F00103C8F8C0
S315080008D06038B8F8143843F00101A8F814181188DC
S315080008E04FF6FF7291421CBF43F00303A8F8143871
S315080008F0D4F810385A1CC4F8102819F8012B1A70A5
S31508000900236801332360BDE7002D28DD013D264F0E
S31508000910DFF8A8806DB2002D21DDEBB2D80726D509
S315080009202268DFF88490D10721D4510001F00C0128
S3150800093041EA650118F8011004292BD008291FD1AE
S315080009403046FFF71AFF134643F8040B301DC9F863
S315080009500030FFF712FF50600832C9F80020D4F8BB
S3150800096018380133C4F8183804B0BDE8F08722688F
S315080009705D1E511C216031786DB211700136CAE7CF
S315080009800229C8D116F8021B9D1E11703A68023258
S315080009903A6007E03046FFF7F0FE42F8040B3A608B
S315080009A004361D1F6DB2B6E760080020EA37000856
S315080009B0093800082838000804000020103A000802
S315080009C008B5FFF71DFE06480323C0F82438072399
S315080009D080F82838BDE8084000F5026006E600BF42
S315080009E060080020F7B54168044601F00F07082F94
S315080009F003D0264801F066F818E0254A8568C668D7
S31508000A00C5F31325964296464FEA8503214904D332
S31508000A10D1F830081A4490420DD2D1F830287344E0
S31508000A20009231462A461C4801F04CF803B0BDE84E
S31508000A30F04001F03BB9194B9E4203D9AA19B2F10D
S31508000A40016F05D9164803B0BDE8F04001F03AB881
S31508000A502B463146134801F035F801F027F92946A7
S31508000A60304601F03DFB014605460F4801F02AF8DD
S31508000A7001F01CF901F01AF9204603236760E560C6
S31508000A80237203B0BDE8F040B0E500BF583800084F
S31508000A90005000086008002073380008FF3F00086F
S31508000AA0AA380008D1380008EC380008F8B54368B9
S31508000AB0044603F00F03052B154D1DD1D5F86038F4
S31508000AC0093043F00103C5F86038FFF756FE0146C2
S31508000AD0FFF76EFE064668B9042701236772296088
S31508000AE0C5F86418C5F85838FFF75CFD6772C5F88D
S31508000AF0186806E00C2303E00023C5F858380D23D0
S31508000B006372022363602046BDE8F8406EE500BFC5
S31508000B106008002013B5044603234360094B027A94
S31508000B2019680B0A8372DBB2417200930648CBB28E
S31508000B3000F0C8FF01F0BAF8204602B0BDE8104040
S31508000B4054E500BF04000020003900087FB50446BC
S31508000B500930FFF712FE0146052363600378227AFF
S31508000B6063724578A5728678E67211F8030F8DE8E8
S31508000B70600020730290054800F0A4FF01F096F883
S31508000B80204604B0BDE8704030E500BF21390008B2
S31508000B9037B504460846FFF70BFE38B10F4800F094
S31508000BA091FF03B0BDE8304001F080B805236360CB
S31508000BB00A7862724B78A3728878E072CD78217AC7
S31508000BC08DE821002573064800F07CFF01F06EF8D9
S31508000BD0204603B0BDE8304008E500BF44390008A8
S31508000BE06C3900087FB50446052242600D0C080AD8
S31508000BF00E0EA072E572C0B2EDB26172227A009052
S31508000C00CBB2064826730296019500F05BFF01F009
S31508000C104DF8204604B0BDE87040E7E49139000875
S31508000C20082370B54360134B04461A68124BD2F872
S31508000C300700217A834228BF0346D2F80B201B02FD
S31508000C40A360E26021720D4800F03CFFE51D04F147
S31508000C500F0615F8011F0A4800F034FFB542F8D10F
S31508000C60084800F02FFF01F021F82046BDE8704043
S31508000C70BCE400BF04500008FFFF0F00AC390008B1
S31508000C80BD3900080235000807B5017A4B1E142B3A
S31508000C905ED8DFE803F00B5D267171101B207171B9
S31508000CA02B5D5D30363B3D435D5D480003B05DF826
S31508000CB004EBFFF7FBBE4368042B5DD10830FFF752
S31508000CC05CFD036803B05DF804EB184703B05DF8F4
S31508000CD004EBFFF775BE2A4A2A4B11680B431360CB
S31508000CE04AE003B05DF804EBFFF77CBE03B05DF89D
S31508000CF004EBFFF70FBF244903B05DF804EBFFF7D9
S31508000D0047BF03B05DF804EBFFF720BF1F4900E0BB
S31508000D101F4903B05DF804EBFFF764BF03B05DF845
S31508000D2004EBFFF77DBF4168024601F07F010139F8
S31508000D300930FFF759FD17480123C0F82438042362
S31508000D4080F8283800F5026003B05DF804EB4DE43E
S31508000D50104AD2F868380133C2F86838C368019374
S31508000D608368009390E80C000B4800F0ABFE03B0D4
S31508000D705DF804EB00F09ABF03B05DF804FB00BF12
S31508000D800CED00E00400FA05040000080050000815
S31508000D9000F8070860080020C139000838B50A4D70
S31508000DA0286801F0E9FE084C18B1286801F0E0FE51
S31508000DB0F6E72546206801F0E6FE18B1286801F036
S31508000DC0D9FEF7E738BD00BF5008002038B50C46F5
S31508000DD00968054609B1FFF7F9FF21462846BDE827
S31508000DE0384000F093B800BF204B1B6883423CD0C4
S31508000DF0C36C70B505468BB10026995939B10C6894
S31508000E00284600F083F82146002CF8D1EB6C04360E
S31508000E10802EF2D11946284600F078F8296C11B1CF
S31508000E20284600F073F8D5F8481151B105F5A676AD
S31508000E30B14206D00C68284600F068F8A64221465A
S31508000E40F8D1696D11B1284600F060F8AB6B03B9AB
S31508000E5070BDEB6B28469847D5F8E0120029F7D005
S31508000E602846BDE87040FFF7B1BF70473004002040
S31508000E70F8B50C46224F064600F0DCFBBB685D68F9
S31508000E8025F00305291B01F6EF7121F47F6121F096
S31508000E900F01A1F58054B4F5805F07DB00213046C9
S31508000EA000F0CCFBBB682B44984204D0304600F0D7
S31508000EB0C3FB0020F8BD6142304600F0BFFB01309D
S31508000EC00DD0104BBA6819682D1B45F00105304640
S31508000ED0091B5560196000F0AFFB0120F8BD002121
S31508000EE0304600F0ABFBBA68831A0F2BDEDD064CE2
S31508000EF00449246843F00103001B53600860D5E7E2
S31508000F00340400206819002040080020002945D034
S31508000F102DE9F0410D46804600F08CFB55F8047C1F
S31508000F206A49A5F1080427F00103E2188E6850689B
S31508000F30B24220F0030062D0FE0750600BD455F889
S31508000F40087C01F1080EE41BA5683B4475456FD083
S31508000F50E768EF60BD6015186D68ED0742D543F088
S31508000F6001026260E350B3F5007F18D2DB084868D7
S31508000F709D100122013351F8337002FA05F501EB91
S31508000F80C3022843083AE260A760486041F8334044
S31508000F90FC604046BDE8F04100F04EBB70475A0A77
S31508000FA0042A53D89A0902F139077F0002F1380555
S31508000FB001EB870051F827200838904243494DD065
S31508000FC0516821F003018B4202D292689042F7D110
S31508000FD0D068E060A2608460D4604046BDE8F04115
S31508000FE000F02ABB95683A4F0344BD423FD0D0680B
S31508000FF043F00102E86085606260E350B3E7FF07EB
S31508001000034407D455F8085C641BE268A0682B44BF
S31508001010C26090602F4A43F00100126860609342F4
S315080010208C60B6D32C4B40461968FFF721FFB0E712
S3150800103011184968C90744D491680344D26843F033
S315080010400100CA6091606060E350A2E7142A17D8CD
S3150800105002F15C077F0002F15B05A9E7AA104B685D
S31508001060012505FA02F213434B600246B1E743F045
S3150800107001024C610C61E560A5606260E35088E797
S31508001080542A06D81A0B02F16F077F0002F16E0583
S315080010908EE7B2F5AA7F06D8DA0B02F178077F0049
S315080010A002F1770584E740F25450824206D89A0C3A
S315080010B002F17D077F0002F17C0579E7FE277E2590
S315080010C076E743F001026260E35062E734040020E9
S315080010D03C0400203C080020641900202DE9F04F4C
S315080010E001F10B05162D83B0064640F2A08035F0B7
S315080010F0070500F1C080A94200F2BD8000F09AFA07
S31508001100B5F5FC7FC0F090826B0A00F0BB80042B1B
S3150800111000F27781A80900F1390E4FEA4E013830FE
S31508001120BE4F07EB81014C680839A14207D1AEE0F2
S31508001130002A80F2AE80E468A14200F0A8806368C5
S3150800114023F003035A1B0F2AF2DDB4493C6901F167
S31508001150080E744500F0A881636823F003035A1B40
S315080011600F2A00F38E81002AC1F814E0C1F810E0B6
S3150800117080F29380B3F5007F80F05C81DB084A68D3
S315080011804FEAA3094FF0010C013351F833800CFAEA
S3150800119009F901EBC30C49EA0202ACF1080CC4F8E0
S315080011A00CC0C4F808804A6041F83340C8F80C40BF
S315080011B0831001249C4094427CD8144206D120F026
S315080011C003006400144200F10400FAD007EBC009DA
S315080011D0CC468046DCF80C108C4507D166E1002A1F
S315080011E080F27481C9688C4500F060814B6823F0F1
S315080011F003035A1B0F2AF2DD0C46CB6854F808CFB6
S3150800120045F00108C1F804800D4442F00101CCF80C
S315080012100C303046C3F808C07D613D61C5F80CE066
S31508001220C5F808E06960AA5000F006FA1FE0102920
S3150800123021D800F0FFF9102506230220774F07EB87
S3150800124083035C68A3F10802944200F0388163685E
S31508001250E16823F0030323445A68A56842F00102B3
S31508001260E96030468D605A6000F0E6F90834204699
S3150800127003B0BDE8F08F002420460C23336003B08A
S31508001280BDE8F08F80214FF0400E3F2048E77046BA
S315080012905BE723445A68E168DFE723445A68304627
S315080012A042F001025A60083400F0C6F9204603B03D
S315080012B0BDE8F08FBC68636823F00308A84504D32B
S315080012C0C5EB08030F2B00F38C80554BDFF86091B4
S315080012D01A68D9F800302A44013304EB080A00F0EA
S315080012E0608102F580520F3222F47F6222F00F02EB
S315080012F011463046019200F0A1F9B0F1FF3F83464E
S31508001300019A00F05881824500F2FC80454BDA4587
S3150800131019681144196000F05381D9F80000DFF804
S3150800132010E101301BBFCAEB0B0A5144CEF800B0DE
S3150800133019601BF0070100F01781C1F10800C1F51B
S315080013408051834408315A44C2F30B02C2EB0109A7
S3150800135049463046019300F071F9431C019B00F0A1
S315080013603F81CBEB00024A4442F001021968BC42B5
S315080013704944C7F808B01960CBF80420DFF8A490F0
S3150800138016D0B8F10F0F40F2FD806268A8F10C0381
S3150800139023F0070302F00102E0184FF0050E1A4386
S315080013A00F2B6260C0F804E0C0F808E000F21C8168
S315080013B01D4BBC681A68914288BF19601B4B1A6896
S315080013C09142626888BF196022F003029542A2EB37
S315080013D0050301D80F2B04DC304600F02DF9002454
S315080013E045E745F0010243F00103254462603046B3
S315080013F0BD6008346B6000F01FF9204603B0BDE8F5
S31508001400F08F142B71D9542B00F2A480280B00F10D
S315080014106F0E4FEA4E016E3082E600BF340400209C
S315080014206419002068190020601900205C19002042
S31508001430400800205A0A042A5ED9142A00F2B3800A
S3150800144002F15C0149005B3207EB810C57F8211069
S31508001450ACF1080C8C45DFF8D88100F088804A6822
S3150800146022F00302934202D289688C45F7D1D1F85B
S315080014700CC07A68C4F80CC0A160CCF80840CC60EF
S3150800148096E645F0010742F00103254467603046B9
S315080014904D610D61C5F80CE0C5F808E06B60AA500F
S315080014A0083400F0C9F8E2E64A6881E608F101085E
S315080014B018F0030F0CF1080C7FF48CAE30E0DC68F2
S315080014C0A34208BF02303FF440AEC0E60C460B44C8
S315080014D05A68C96854F8085F42F001025A603046F3
S315080014E0E9608D6000F0A8F8C1E603F15C0E03F12F
S315080014F05B004FEA4E0113E69A0902F139014900E9
S315080015003832A1E7BC424A4B3FF400AF9C68626898
S3150800151022F003025AE759F80839994540F08280C3
S3150800152010F0030F00F1FF30F5D17B6823EA0403BE
S315080015307B6064009C423FF6BDAE002C3FF4BAAE19
S315080015401C4240467FF442AE64001C4200F104008F
S31508001550FAD03BE6B3F5AA7F18D8E80B00F1780E67
S315080015604FEA4E017730DBE54FF48051EBE6012177
S31508001570D8F80430921001FA02F21A43C8F8042087
S31508001580614677E70123CBF8043025E740F2545249
S31508001590934220D8A80C00F17D0E4FEA4E017C300C
S315080015A0BEE51032A4E6542A26D81A0B02F16F01BA
S315080015B049006E3248E7BC68626822F0030205E714
S315080015C0CAF30B0000287FF4A8AE4244BB6842F079
S315080015D001025A60ECE6FE214FF07F0E7E209FE561
S315080015E001224FF00009C1E604F108013046FFF771
S315080015F08DFCD9F80010DBE6B2F5AA7F05D8DA0B20
S3150800160002F17801490077321EE740F254518A42C6
S3150800161005D89A0C02F17D0149007C3214E7FE21B7
S315080016207E2211E77B6884E7E808431C5B0005E631
S3150800163034040020704700BF704700BF38B5074C18
S315080016400023054608462360FEF73EFF431C00D0EC
S3150800165038BD2368002BFBD02B6038BD90190020BD
S31508001660012318B1033803FA00F07047184670478B
S31508001670F8B5594D00232B6003780146042B34D85E
S31508001680DFE803F034030B162300544B4FF4803283
S315080016901A601A689703FCD591E0504B4FF48022E4
S315080016A01A604FF480321A601A689603FCD586E0F1
S315080016B04B4A136843F400431360484B4FF4803297
S315080016C01A601A689403FCD579E0454A136843F40E
S315080016D000431360414B4FF480221A604FF4803266
S315080016E01A601A689003FCD569E0FEE73D4B42781C
S315080016F0985C8B684343C87801304000B3FBF0F32D
S315080017001AB914463848036003E037485B08036093
S315080017100024354B35481B68834206D93448834232
S31508001720344894BF31263226066008794E798F7977
S315080017304FEA002E4EEAC62E4EEA071EDFF898C07C
S31508001740C5F800E0AAB1CC78920442EA44448A7803
S31508001750DCF800E044EA024242EA0E02CCF8002035
S315080017601E4A116841F08071116011688901FCD523
S3150800177002242A6822F0030222432A60A4002A6867
S3150800178002F00C02A242FAD11B490A6842F07C0216
S315080017900A60144A02EB47073A8AB3FBF2F2174B80
S315080017A01A60FFF75DFFB2FBF0F0154B1860304684
S315080017B0FFF756FFB2FBF0F0124B1860F8BD094B65
S315080017C04A780124985C8B684343C8780130400006
S315080017D0B3FBF0F396E700BF041002400010024086
S315080017E004000140203A0008D410002000366E019B
S315080017F0006CDC020020024018100240E0100020B5
S31508001800DC100020D8100020054A136843F08073C6
S315080018101360044A136843F001031360704700BF5E
S31508001820FCED00E0001000E0F0B50124B0FBF4F593
S315080018308D4201D34C43F9E70026CCB1B0FBF4F551
S3150800184004FB1500B4FBF1F41EB9002D01DC002CD5
S31508001850F3D1092D03F1010E04DD002A14BF372741
S31508001860572700E030273D441D7001367346E4E7EC
S315080018701C70F0BDF0B50124B0FBF4F58D4201D320
S315080018804C43F9E70026CCB1B0FBF4F504FB150090
S31508001890B4FBF1F41EB9002D01DC002CF3D1092D9F
S315080018A003F1010E04DD002A14BF3727572700E08D
S315080018B030273D441D7001367346E4E71C70F0BDC1
S315080018C02DE9F041069D002B06460F462B4614BF10
S315080018D04FF030084FF0200813F8011B09B91446D9
S315080018E003E0002A08DD013AF6E7002C04DD41464C
S315080018F03046B847013CF8E715F8011B11B13046E8
S31508001900B847F9E7BDE8F08103685A1C0260197008
S3150800191070472DE9F04F81468A4615461C4689B020
S3150800192005AF2978002900F0C480252901D00135A2
S3150800193081E06A784FF00008302A0CBFAA78AE1CFE
S31508001940A2F1300312BF4FF0000BEE1C4FF0010B53
S31508001950092B19D8A2F13003D9B2092905D80A22C8
S3150800196002FB083816F8012BF4E7A2F16103052BF0
S3150800197002D8A2F1570305E0A2F14103052B03D8CB
S31508001980A2F137030A2BEADD6C2A39D13278751CA5
S31508001990632A38D006D8252A4CD0582A0CD0002AD3
S315080019A0BFD186E0732A37D002D8642A72D0B8E746
S315080019B0752A4FD0782AB4D13B46A2F15800424244
S315080019C004F10406424110212068FFF72DFF344632
S315080019D00EE0582A32D1A2F158014A4204F1040510
S315080019E04A4120683B4610212C46FFF743FF3546FF
S315080019F000975B46424651464846FFF761FF90E727
S31508001A00632A05D1354621784846261DD0470CE07D
S31508001A100DD9732A15D13546236842460093514697
S31508001A2000234846261DFFF74BFF344679E7252A4B
S31508001A30CFD1354625214846D04772E7CAB3354641
S31508001A406FE702D8642A15D0F9E7752A07D0782AED
S31508001A50C1D0F4E7261D3B4600220A21B4E7231D20
S31508001A6003933B46206800220A21FFF703FF354609
S31508001A70039CBDE72068231D0028039308DA2D235D
S31508001A808DF8143040420DF1150300220A21ECE7C7
S31508001A903B46FAE72068261D002808DA2D238DF82C
S31508001AA0143040420DF1150300220A218DE73B460A
S31508001AB0FAE709B0BDE8F08F014B19605860704726
S31508001AC0EC1000200FB407B5064804AB53F8042BF6
S31508001AD0016840680193FFF71CFF03B05DF804EB4B
S31508001AE004B07047EC1000200EB40FB505AB53F8E0
S31508001AF0042B0190064901A80393FFF70AFF019BEF
S31508001B0000221A7004B05DF804EB03B0704700BFFA
S31508001B100919000808B50A4A0A4B0B498B4204D230
S31508001B2012F8010F03F8010BF8E7084B084A0021E1
S31508001B30934202D203F8011BFAE7FEF749FBFEE7D8
S31508001B40233F0008000000204C0800205008002011
S31508001B509419002070B5054608461146194A1E46CE
S31508001B601468194B24F0F0041460146844F0B004A7
S31508001B7014601A6842F480421A60144A00F074F934
S31508001B80F8B9134ABDF81010304600F0CFF80446ED
S31508001B9010B10234A0B270BD29460E4800F01DFAF5
S31508001BA00C48294600F08EF920460B4A1368A2F520
S31508001BB0487243F48043C2F82033136843F0200385
S31508001BC0136070BD0408014018100240F810002088
S31508001BD0F41000200038014024E400E038B5144B26
S31508001BE01B6843B1134B14491A68096812681170C7
S31508001BF0186800F097F9114C2368BBB1104B1B68A5
S31508001C00A3B1104D286883685A1C82601A780A4B5B
S31508001C101A60C2691388013B9BB2138033B900F07E
S31508001C20DDF82B68DB691B8803B9236038BD00BF64
S31508001C3014002742F8100020043801409C0127426E
S31508001C401C002742F410002010B5044600F03CF8AA
S31508001C500128FBD0094B19680A68501C08601470E3
S31508001C601A68938C516812680B449A4203D300F0A1
S31508001C701DF8012010BD002010BD00BFF410002083
S31508001C8038B50446084D29688A691378002BFCD1B3
S31508001C908B8C4A6820461A4400F020F8044610B196
S31508001CA000F004F8EFE738BDF410002008B5044B3F
S31508001CB0186800F057F910B9024B01221A6008BDDE
S31508001CC0F41000209C012742034B1B689B69188867
S31508001CD0003018BF01207047F410002018B40C68B3
S31508001CE010F8013B2BB104F8013B9442F8D314F0E9
S31508001CF0000F18BF00200C6018BC7047084B01463F
S31508001D001A68084822F0F0021A601A6842F0B0020F
S31508001D101A60054A136843F48043136000F09EB9BD
S31508001D20040801400038014018100240F8B50D4675
S31508001D301646074600282DD001292DD9282000F05F
S31508001D4057F9044608B90120F8BD306005FB07F6C7
S31508001D50B0B200F04DF920610028F4D06060E06070
S31508001D602060A060304460616800A784E58480B282
S31508001D7000F03EF920620028E5D000231946A0614C
S31508001D80E06120F8131001339AB29542F9D8A061A0
S31508001D900020F8BD0220F8BD0320F8BD10B50446A2
S31508001DA000F038F9E36843F4005343F00803E360AE
S31508001DB0636943F08003636110BD4268838C1344F2
S31508001DC082694360023282614269934221BF036994
S31508001DD04360036A8361436803607047C268838C03
S31508001DE01344C269C3600232C2614269934221BF89
S31508001DF00369C360036AC361C368836070470000F0
S31508001E00F8B50E46124D114607462A46304600F0EA
S31508001E1030F90446D0B90F4A394613680E4843F4D8
S31508001E208043136052F8043C43F0010342F8043C33
S31508001E3000F047F9094B1E602B68DA68084B1A60F0
S31508001E40084A43F8042CA12243F80C2C2046F8BD76
S31508001E50F810002018100240003801405C000240CB
S31508001E606400024004380140F8B50D461646074698
S31508001E7020B329B3242000F0BBF8044608B9012092
S31508001E80F8BD306005FB07F6B0B200F0B1F8E060C7
S31508001E900028F4D06060A0602060304420616800AB
S31508001EA02784658480B200F0A3F8E0610028E6D0B4
S31508001EB000236061A06103801846F8BD0220F8BDC2
S31508001EC00320F8BD10B5044600F0A4F8E36843F40F
S31508001ED0005343F02403E36010BD416902460B88B2
S31508001EE06BB140680231138C5161116903448B420E
S31508001EF0536005D3D3685360D36953617047184656
S31508001F0070478369826802338361038C13440269CC
S31508001F108360934221BFC3698361C3688360836812
S31508001F200360704730B404680346621C0260217877
S31508001F300D2981680AD18069551A0580188C0144D3
S31508001F408A423CBF00226270184606E0048C0C44A4
S31508001F50A24205D38369521A1A8030BCFFF7D1BF53
S31508001F6030BC704708B5416803685B1A9BB22BB151
S31508001F7082691380FFF721FF002008BD012008BDF4
S31508001F80F8B50D461646074618B321B3282000F0C3
S31508001F902FF8044608B90120F8BD306005FB07F69E
S31508001FA0B0B200F025F820610028F4D06060E06047
S31508001FB02060A060304460616800A784E58480B230
S31508001FC000F016F820620028E5D0A061E061002044
S31508001FD0F8BD0220F8BD0320F8BD10B5044600F090
S31508001FE019F8E36843F4005343F00803E36010BDAF
S31508001FF0064A03301368184420F003001060044AA8
S31508002000904234BF18460020704700BF440800209D
S31508002010FC1800200E4B10B598420CBF0D4B0E4B0A
S315080020201A68192353438A00B3FBF2F26423B2FBFE
S31508002030F3F109010C0903FB142212013232B2FB37
S31508002040F3F303F00F030B439BB2836010BD00BF8D
S3150800205000380140D8100020DC10002010B50446D6
S31508002060FFF7D8FFE36843F4005343F00803E3603F
S3150800207010BDF8B5064617460D46F1B1F8B124204D
S31508002080FFF7B6FF044608B90120F8BD38603046A8
S31508002090FFF7AEFFE0600028F6D0206030442061EC
S315080020A0268465842846FFF7A3FFA0600028EBD0A6
S315080020B005446060A5610020F8BD0220F8BD032034
S315080020C0F8BD10B50446FFF7A5FFE36843F40053CF
S315080020D043F00403E360636943F04003636110BDA2
S315080020E030B5084C01444FF0FF33884208D210F847
S315080020F0012BDDB26A4054F8222082EA1323F4E762
S31508002100D84330BD503A000810B5044651B90B21E2
S315080021100A4800F0D5F94FF400630CB9084A08E0FC
S31508002120084A09E00721084800F0CAF9802314B9CB
S31508002130064A138010BD064A136010BD00140140FC
S315080021401414014010140140000C0140140C014005
S31508002150100C014000487047503E000870B50E4606
S315080021600146104800F09AFB0546C0B190F9903038
S31508002170ABB900F04DFF0C4800F08EFF0123044672
S315080021801A466FF00301304601F07AF8044307480F
S3150800219000F082FF20431CBF073885F890002846C8
S315080021A070BD00BF5C3E0008843E0008903E0008F3
S315080021B082B00190019B002B03DD019B013B01933B
S315080021C0F8E702B070471B4B1B4A1968F0B59142F5
S315080021D098BF1A4A85B098BF1A601B680A22B3FBD3
S315080021E0F2F20192FA22B3FBF2F202922822B3FB30
S315080021F0F2F30446039318B1072828BF072400E022
S31508002200062400F031FA00F0B1F90D4D0D4E3821D3
S315080022100F4600222F800298FFF7CAFF3160039805
S31508002220FFF7C6FF01329442F4D10198FFF7C0FFC9
S31508002230EDE700BFD41000203F420F0000127A00DD
S315080022401418014010180140F0B5124B124D1E46E5
S315080022502F4604300431002A19DD2C68E407FCD423
S315080022601C6844F001041C6031F8044C20F8044C46
S315080022703C68E407FCD43468013A44F0010434604D
S3150800228031F8024C043020F8064C0431E3E700200C
S31508002290F0BD00BF102002400C200240044B054A46
S315080022A01A6002F188321A60D86800F08000704718
S315080022B00420024023016745044B054A1A6002F1CF
S315080022C088321A60D86800F08000704744200240BF
S315080022D0230167452DE9F84F314F91460546B84623
S315080022E0BA46304C0026266002314E453FDA2E4B60
S315080022F09D421DD92D4B9D4242D82D4A1368DFF8C1
S31508002300B0B013F0010FF9D1FFF7D6FF00283BD183
S315080023103423CBF80030274B01221A6031F8023CEF
S315080023202B80DBF80030DB07FBD4214B1A6817E05B
S31508002330B5F5000F2CD33B68DA07FCD4FFF7AEFFE0
S3150800234050BB3423C8F800301B4B01221A6031F801
S31508002350023C2B80DAF80030DB07FBD4D8F80020E3
S31508002360236801361343236002350231BDE723682B
S3150800237013F0140F14BF6FF004000020BDE8F88FA7
S315080023804FF0FF30BDE8F88F6FF00100BDE8F88F19
S315080023906FF00200BDE8F88F6FF00300BDE8F88F14
S315080023A00C200240FC180020FFFF0708FEFF0F085C
S315080023B04C20024050200240102002402D4938B5DA
S315080023C000230B602C4B044698421ED92B4B98428F
S315080023D044D82B4A13682A4D13F0010FFAD1FFF798
S315080023E06BFF00283DD1274B02221A60264A14604B
S315080023F01A6842F040021A602A68D407FCD41A68A0
S3150800240022F002021A601E4B1CE0B0F5000F2BD317
S315080024101E4A13681D4D13F0010FFAD1FFF73EFF50
S3150800242028BB1B4B02221A601A4A14601A6842F02B
S3150800243040021A602A68D207FCD41A6822F00202FF
S315080024401A60124B1B680A6813430B600B6813F07B
S31508002450140F14BF6FF00400002038BD4FF0FF3092
S3150800246038BD6FF0010038BD6FF0020038BD6FF05F
S31508002470030038BDFC180020FFFF0708FEFF0F0801
S315080024804C20024050200240542002400C200240BA
S31508002490102002401420024038B5084D284600F0A6
S315080024A021F8044605F1080000F01CF8044305F17C
S315080024B0100000F017F8204338BD00BF9C3E000806
S315080024C00729C4BF04300839026889000F238B40E6
S315080024D022EA030303600368032202FA01F119439F
S315080024E00160704710B5037902680F2B32D88179DD
S315080024F0032932D84179072932D802BF01219940E8
S3150800250011614179062904D104790121A14089B2D2
S315080025109182072B82BF083B0432DBB214689B000A
S315080025200F21994024EA010111604479032C02D84D
S31508002530817931B917E0052C9ABF211FCCB2022444
S315080025400021106841EA840101FA03F3034313608A
S31508002550002010BD6FF0020010BD6FF0010010BD25
S315080025604FF0FF3010BD6FF0030010BD374B1A68EF
S31508002570043322F4702243F8042C53F8042C42F452
S31508002580403243F8042C53F8042C22F0704243F8E6
S31508002590042C53F8042C42F0405243F8042C1A68D1
S315080025A022F00F021A601A6842F003021A60D3F882
S315080025B0FC2322F47002C3F8FC23D3F8FC2342F46C
S315080025C04012C3F8FC23D3F80014214A0A40C3F882
S315080025D00024D3F800141F4A0A43C3F80024D3F88A
S315080025E0FC2722F47F02C3F8FC27D3F8FC2742F421
S315080025F00812C3F8FC27184A136823F0704323F01F
S31508002600F0031360136843F0405343F0300313603C
S31508002610124B1A6822F00F221A601A6842F0032237
S315080026201A600F4A1368DBB21360136843F033234A
S3150800263043F44C1313600B4B1A6822F070421A606D
S315080026401A6842F040521A60704700BF00080140FD
S3150800265000F0F0FF330303000014014004140140A6
S315080026600018014004180140174A184930B51023CC
S315080026704FF480741648174D13600C802021018092
S315080026802C604FF4007404801360A2F8043803F138
S315080026908043A2F8041803F58A3302221A604FF41D
S315080026A0806180221A6099804FF4804199800421C4
S315080026B0A3F80414A3F804244FF40042C3F8002432
S315080026C07822C3F8002430BD1008014014080140E0
S315080026D0140C0140100C0140064B1A6822F00F0238
S315080026E01A601A6810B942F0030201E042F00402C7
S315080026F01A607047000801400729C4BF043008392A
S31508002700026889000F238B4022EA030303600368EB
S31508002710032202FA01F119430160704730B502F04D
S315080027200102C5680224C3688A408C40134325EA1F
S315080027300404072943EA0403C360C4BF0839043004
S31508002740026889000F238B4022EA030303600368AB
S31508002750082202FA01F11943016030BD154A10B585
S31508002760136803F07F030360134B196801F07F01B8
S315080027704160116821F07F011160196821F07F011D
S3150800278019600E490C68106810F0130F05D0D4F8BC
S3150800279080000130C4F88000F5E749681A6812F02D
S315080027A0130F05D0D1F880200132C1F88020F5E753
S315080027B010BD00BF146400401468004000190020D2
S315080027C0054A036811680B431360D2F8001443687E
S315080027D00B43C2F8003470471464004013B504462E
S315080027E06846FFF7BBFFA368013BA3600E4B9A68D8
S315080027F001329A602268126911698A4205D100215C
S315080028002160D9680131D96005E02168106908613D
S31508002810196901311961996A684611619A62FFF767
S31508002820CFFF02B010BD00BF0019002083690BB9A5
S315080028300362704700F10802026259680268C2F82A
S31508002840841199680268C2F888110268D968C2F8C2
S315080028508C111B68026843F00103C2F88031704787
S3150800286013B504466846FFF779FF236A68461A696E
S31508002870236A11691961084B996A11619A62D4F839
S315080028808420013AC4F884209A6801329A60FFF7D6
S3150800289097FF02B010BD00BF001900202DE9F047D0
S315080028A006790546731E012B8A4602D90020BDE823
S315080028B0F0879821012000F083FD04460028F5D012
S315080028C0012E9A4E40F02F81994B3060376B23606A
S315080028D0DFF85882BFB10023C4F88430E362E363AB
S315080028E0DAF804302979C4F88830DAF808306879D3
S315080028F02363DAF80C30236400F0F6FA00B30A38DA
S3150800290084F890000CE1DAF80090B9F1000FE2D0F3
S3150800291018214846C8F83090C8F8089000F050FDCD
S3150800292008B9FE2398E03B4608F118080133994593
S31508002930C8F8100000F118028046CCD01046F5E71A
S315080029402268136803F480331360EB7A2268002B3D
S3150800295014BF4FF00113012313602168754B0A1D3C
S315080029601068C00703D413F1FF33F9D202E00BB99C
S31508002970FA2371E0AB7A6A7A013313446E4A126815
S31508002980B2FBF3F32A68B3FBF2F3AA79013B0032F0
S3150800299018BF0122D207CA612068EA79C1690032E4
S315080029A018BF012241EA8272C2612A7A2068013A76
S315080029B0C169120602F040720A43C2616A7A206847
S315080029C0013AC169120502F4E0020A43C261AA7A11
S315080029D02068013AC169120402F470220A43C261EE
S315080029E02168C3F30903CA691343CB6122681368D4
S315080029F023F0FE03136021682B7B0A68003318BF97
S31508002A00012342EAC3130B6021686B7B0A68003313
S31508002A1018BF012342EA83130B602168AB7B0A685F
S31508002A20003318BF012342EA43130B602268136878
S31508002A3043F0100313602268136823F00103136040
S31508002A4023681A1D3B4B1168C90703D513F1FF33D9
S31508002A50F9D204E01BB9F92384F8903060E02A69BA
S31508002A60696922F0030303F1604302F0030203F5E8
S31508002A706443D20001FA02F219680A431A602A6905
S31508002A800121530903F1382340339B00186802F0EB
S31508002A901F0201FA02F202431A60AA69E86922F0E3
S31508002AA0030303F1604302F0030203F56443D20013
S31508002AB000FA02F2186802431A60AA69530903F178
S31508002AC0382340339B00186802F01F0201FA02F20D
S31508002AD002431A602A6A686A22F0030303F1604314
S31508002AE002F0030203F56443D20000FA02F2186802
S31508002AF002431A602A6A530903F1382340339B00BC
S31508002B00186802F01F0201FA02F202431A602368EB
S31508002B109A68520101D49960F9E704F14403736392
S31508002B202046BDE8F0877060044BCFE60019002008
S31508002B3000640040808D5B00DC10002000680040C7
S31508002B40094B1B6B63B1094A0020136843F0130352
S31508002B501360D2F8003443F01303C2F80034704708
S31508002B604FF0FF30704700BF001900201464004082
S31508002B70243033E6343031E6436A13B1436A1869C0
S31508002B80704718467047436B33B1044A936B013359
S31508002B909363436B186970471846704700190020FD
S31508002BA02DE9F74391460A68044650070F469846AA
S31508002BB00AD4404B13403BB1D4F88C306FF0010077
S31508002BC00133C4F88C3072E03B4E6846FFF7C6FD09
S31508002BD0B56A2DB1D4F88420D4F888309A4208DB37
S31508002BE06846FFF7EDFD636D4FF0FF30013363650F
S31508002BF05DE02B696846B362B368013BB360FFF7D3
S31508002C00DFFD97E80F0085E80F0000232B4A85F8BB
S31508002C10159085F81680EB752B751368306803F0E8
S31508002C207F030093264B196801F07F010191116813
S31508002C3021F001011160196821F00101196011687C
S31508002C40C90705D5D0F880100131C0F88010F6E71D
S31508002C5071681A68D20705D5D1F880200132C1F803
S31508002C608020F6E704F108031A6922B129681A696F
S31508002C701268914208D21A692A611D61236A2BB922
S31508002C802046FFF7D3FD09E01B69EDE7236A1B69B8
S31508002C909D4201BF636E256201336366D4F88430B2
S31508002CA068460133C4F88430FFF78AFD002003B074
S31508002CB0BDE8F083F8FF1F000019002014640040E7
S31508002CC01468004073B5064668460D461446FFF775
S31508002CD045FD36B1D6F884302360F36A6360F36B3A
S31508002CE0A36035B1D5F88430E360EB6A2361EB6BFA
S31508002CF063616846FFF764FD014B986802B070BDD2
S31508002D00001900200268244B916810B50B40044650
S31508002D102BB1214B9360036F0133036739E001211F
S31508002D209368916082691AB9C36F0B44C36710BD73
S31508002D30D9072ED59A0715D4190716D5436C01332A
S31508002D404364036A1A69137D0133DBB21375036A98
S31508002D501B691A7D036A1B695B7D9A4216D9836CC7
S31508002D6001338364FFF77CFD10E05A070BD5C36C6B
S31508002D700133C364036A1B699B7DDB0706D5036DB4
S31508002D8001330365EEE7C36D0133C3652046FFF7DC
S31508002D904DFD23689B6810BD000101002DE9F3472E
S31508002DA006460C460368344F1D68344BD3F800803A
S31508002DB04FF020092A68B3681344DB682E4A13F0DB
S31508002DC0030F52D06846FFF7C9FCD7F828A0BAF116
S31508002DD0000F03D0A268E3689A420BDB2A68B3683F
S31508002DE0684613442022DA606B6D01336B65FFF782
S31508002DF0E7FC3DE0DAF810300132BB62A260BB683E
S31508002E00CAF8148029687268013BBB608B188A5817
S31508002E10CAF800205A68CAF804209B68CAF808301D
S31508002E202A6873681344DB68CAF80C302A68B368E2
S31508002E301344C3F80C90236823B9C4F800A0CAF851
S31508002E4010A008E023681B69CAF810302368C3F885
S31508002E5010A0C4F800A06846FFF7B2FC6368002B10
S31508002E60A8D0514628469847A2E7D36B0133D363C7
S31508002E7002B0BDE8F08700BF00190020041000E08A
S31508002E80014B1868FFF73EBF00190020014B586830
S31508002E90FFF738BF00190020024B03481968243190
S31508002EA0FFF77CBF00190020B43E0008024B034818
S31508002EB019683431FFF772BF00190020C03E0008B8
S31508002EC0024B034859682431FFF768BF00190020F0
S31508002ED0CC3E0008024B034859683431FFF75EBF01
S31508002EE000190020D83E0008F0B501298DB08446A7
S31508002EF059D1304A02AE136806AF43F00073136027
S31508002F0052F8043C08AD43F0010342F8043C2A4B4E
S31508002F100AAC03F1080293E803008DE8030092E87F
S31508002F20030004AA86E8030003F1100103C982E836
S31508002F30030003F1180103C9BCF1010F87E8030078
S31508002F4003F1200103F1280303C9EE4685E80300CF
S31508002F5093E8030084E8030018D00DD3BCF1020FF0
S31508002F6024D11046FFF7BEFA2046FFF7BBFA134AEC
S31508002F70136843F4C04313E06846FFF7B3FA3846CC
S31508002F80FFF7B0FA0D4B1A681A600AE03046FFF7E9
S31508002F90A9FA2846FFF7A6FA084A136843F48043B5
S31508002FA01360002004E04FF0FF3001E06FF00100ED
S31508002FB00DB0F0BD1C100240E43E000804000140BC
S31508002FC01B281ED8104B1A68D20704D41A6842F078
S31508002FD001021A60F7E70D4B0122196802FA00F0A0
S31508002FE021EA00021A601A681C3B1043D861186867
S31508002FF010F0010004D01A6822F001021A60F6E700
S3150800300070474FF0FF307047006600401C6600406E
S315080030100A4B1A68D10704D41A6842F001021A60EA
S31508003020F7E7074B00221A601C3B1A68D20704D53B
S315080030301A6822F001021A60F7E770470066004036
S315080030401C6600401C2820D8114A1168104BC90775
S3150800305004D4136843F001031360F6E71A6822F4F0
S31508003060F8521A601968020202F4F85261EA02027A
S315080030701A60084A1060186810F0010004D01A682F
S3150800308022F001021A60F6E770474FF0FF307047EA
S315080030900066004048080020F0B5437A1B2B7ED80E
S315080030A0037A072B7ED89908C3F3400503F0010479
S315080030B03F4B1A68D20704D41A6842F001021A6014
S315080030C0F7E73C4A467A1768012303FA06F627EA21
S315080030D006061660477A1668B94031431160417A88
S315080030E052F8086C03FA01F126EA010142F8081CB5
S315080030F0417A52F8086C05FA01F1314342F8081C86
S31508003100467A52F8101CB34021EA030342F8103CF1
S31508003110437A52F8101C04FA03F30B4342F8103CA6
S31508003120437A0268ADB9817A03F1006303F6C843AE
S31508003130012991B24FEAC30341EA024216D01A6046
S31508003140437A4FF0FF3203F1006303F6C843DB000E
S315080031500CE003F1006303F6C843DB001A60437A08
S31508003160426803F1006303F6C843DB005A6012495C
S31508003170447A0A680123A34013430D4A0B60136877
S3150800318013F0010304D0136823F001031360F6E774
S315080031900A4A417A1068814207D9116005E04FF062
S315080031A0FF30F0BD6FF00100F0BD1846F0BD00BF5E
S315080031B000660040146600401C6600404C1900205A
S315080031C00128F0B549D800284DD1294B1C68294B50
S315080031D01D68ED0704D41D6845F001051D60F7E775
S315080031E0234D04F100636E6803F6C843DB0016B985
S315080031F019606FF00301012A596031D81E4901266A
S315080032000F6806FA04F327EA03070F600F68A2405F
S315080032103A430A6051F8082C1A4341F8082C51F829
S31508003220102C1A4341F8102C8A6813438B606A687D
S315080032300F4B32B100225A603444B0B91C600D4BB2
S3150800324001E05E60FBE7186810F0010004D01A6818
S3150800325022F001021A60F6E7F0BD6FF00100F0BD3A
S315080032606FF00200F0BD054BB0E7044BE6E700BF80
S315080032704C190020006600401466004048080020EB
S31508003280F0B5144607460E4685B00C4AA40001ADB3
S315080032901C2B04F0040407CA28BF1C2385E8070072
S315080032A044F003042846019702968DF80C408DF8E1
S315080032B00D30FFF7F1FE05B0F0BD00BF143F000862
S315080032C02DE9F843002407468846164699462546BA
S315080032D0B5420AD057F82510494504D00022404681
S315080032E0FFF76EFF04430135F2E72046BDE8F88391
S315080032F0054B08B91A6003E0012804BF03480260B9
S3150800330001F00101596070474C1900204808002057
S31508003310064A08B9136804E001280ABF044B0023CB
S315080033201B68506840EA0320704700BF4C1900200C
S3150800333048080020002907DA01280CBF0A4B0B4B66
S31508003340186842EA4000704701F1006120B901F6A9
S31508003350C841C90032B903E001F64851C9000AB1AB
S3150800336008687047486870474C19002048080020CC
S315080033700B4B10B41A680C6894420AD14A6802F0DA
S315080033800F02012A05D10A7A082A02BF054C064A05
S3150800339014605B680BB110BC184710BC704700BFBF
S315080033A0541900200400FA050CED00E0024B1960E0
S315080033B0024B8363002070475419002071330008BC
S315080033C0024B0A460146186800F002B8300400208D
S315080033D010B502FB01F1FDF781FE0446D8B150F89D
S315080033E0042C22F00302043A242A18D8132A14D9E2
S315080033F000231B2A0360436016D9242A8360C3600E
S3150800340011BF00F110020361436100F118020023A5
S31508003410136053609360204610BD0246F7E700210B
S3150800342000F006F8204610BD00F10802EFE700BFDD
S3150800343070B4840746D0541E002A41D0CDB2034644
S3150800344002E0621EE4B3144603F8015B9A07F8D15A
S31508003450032C2ED9CDB245EA05250F2C45EA05459C
S3150800346019D9264603F11002103E0F2E42F8105CB9
S3150800347042F80C5C42F8085C42F8045C02F110025F
S31508003480F2D8A4F1100222F00F0204F00F04103251
S31508003490032C13440DD91E462246043A032A46F83D
S315080034A0045BFAD8221F22F003020432134404F004
S315080034B003042CB1C9B21C4403F8011BA342FBD177
S315080034C070BC704714460346C2E700BF0D0A0A0AD5
S315080034D02023232323202E2E2F4C44524649584579
S315080034E044504F442F5452554E4B2F4C4452202390
S315080034F02323232030332F32392F323031382076A8
S3150800350030200A0D00202068636C6B5F6672657157
S3150800351020284D487A29203A202539750A0D002099
S3150800352070636C6B315F6672657120284D487A2925
S31508003530203A202539750A0D002070636C6B325FBE
S315080035406672657120284D487A29203A20253975F2
S315080035500A0D00737973636C6B5F66726571202858
S315080035604D487A29203A202539750A0D000A0D4357
S315080035706F6E74726F6C2F737461747573207265D5
S3150800358067697374657220285243435F435352290F
S31508003590203A20253038780A0D00436F6E74726F12
S315080035A06C2F7374617475732072656769737465BB
S315080035B07220285243435F43535229203A2025302C
S315080035C0387820416674657220524D5646207772C7
S315080035D0697474656E0A0D0A00436F6E74726F6CB7
S315080035E02F73746174757320726567697374657275
S315080035F020285243435F43535229203A2025303826
S3150800360078204166746572204C505752207772694B
S315080036107474656E0A0D0A0043414E3120696E695D
S3150800362074206661696C65643A204E554C4C20706E
S3150800363074720A0D0043414E20696E6974206661F2
S31508003640696C65643A2072657475726E20636F647E
S3150800365065203D2025640A0D002020692E652E2050
S31508003660756E6974233A2025640A0D00464C415349
S31508003670482053495A453A2025640A0D00287533CF
S3150800368032292A70637263626C6B3A202530385887
S315080036900A0D000A0D0A23232323204174206F668E
S315080036A066736574202530385820616464726573C2
S315080036B073202530385820697320626F6775732028
S315080036C0232323230A0D0A00657869740A00777292
S315080036D0626C6B3A20256420255820255820253011
S315080036E0385820253038580A0D007772626C6B3AC4
S315080036F0204341534520303A206E6F206E6565643D
S3150800370020746F20777269746520626C6F636B0A28
S315080037100D007772626C6B3A204341534520323A6A
S3150800372020657261736520626C6F636B20626566E3
S315080037306F72652077726974696E670A0D00777211
S31508003740626C6B3A204341534520313A20777269BF
S3150800375074696E6720626C6F636B0A0D007772621C
S315080037606C6B3A207061795B315D20255820706159
S31508003770795B325D2025580A0D007772626C6B3AC8
S315080037802064656661756C743A2025640A0D0046E6
S315080037904C41534820424C4B20535A453A20256405
S315080037A0204B0A0D00464C415348204849204144C5
S315080037B044523A20253038580A0D0043414E2049D4
S315080037C04427730A0D00434D443A20253038580AD9
S315080037D00D005244203A20253038580A0D00575219
S315080037E0203A20253038580A0D004E41434B303ACE
S315080037F02025642025582025642025582025303882
S315080038005820253038580A0D004E4143314B3A208E
S315080038102564202558202564202558202530385829
S3150800382020253038580A0D00706164642063726F71
S315080038307373656420626C6F636B20626F756E6468
S315080038406172793A20253038582020706164643ACC
S3150800385020253038780A0D0053656E64204E4143A2
S315080038604B3A20646C63206E6F7420383A202564C6
S315080038700A0D0053656E64204E41434B20737461F4
S3150800388072742061646472206F7574206F6620728A
S31508003890616E67653A20253038582025582025302E
S315080038A0385820253038580A0D004861726420437C
S315080038B06F64656420616464726573732063686508
S315080038C0636B206F75742D6F662D72616E67653A2E
S315080038D00072635F63726333323A202530385820AA
S315080038E02530385820253038580A0D0053656E643F
S315080038F0206372632D33323A20253038580A0D007A
S31508003900583A20666C617368626C6F636B73697A88
S31508003910653A2025582025582025582025580A0D6F
S315080039200052343A207265616420616464723A20F8
S315080039302558202558202558202558202558202543
S31508003940580A0D00646F5F67657466726F6D64610F
S315080039506464726573733A2061646472206E6F746E
S31508003960204F4B3A20253038580A0D004745544118
S315080039704444523A207265616420616464723A2054
S3150800398025582025582025582025582025580A0D21
S315080039900073656E64343A2025582025582025582A
S315080039A02025582025582025580A0D00474554201B
S315080039B0464C4153485020616464722000202558C3
S315080039C000424F47555320434D4420434F44453A00
S315080039D020255820253038582025582020253038CD
S315080039E05820253038580A0D000000000000000055
S315080039F06000000020000000100000000800000021
S31508003A000000A002010000000800000000000000FD
S31508003A100204040802020202020404040202020268
S31508003A200202080A0C0E10121416181A1C1E202060
S31508003A300100010001000100010001000100010070
S31508003A400200040008001000400080000001000287
S31508003A5000000000963007772C610EEEBA510999DE
S31508003A6019C46D078FF46A7035A563E9A395649E3A
S31508003A703288DB0EA4B8DC791EE9D5E088D9D2975E
S31508003A802B4CB609BD7CB17E072DB8E7911DBF90BA
S31508003A906410B71DF220B06A4871B9F3DE41BE84DE
S31508003AA07DD4DA1AEBE4DD6D51B5D4F4C785D3833A
S31508003AB056986C13C0A86B647AF962FDECC9658ADE
S31508003AC04F5C0114D96C0663633D0FFAF50D088D3A
S31508003AD0C8206E3B5E10694CE44160D5727167A2DE
S31508003AE0D1E4033C47D4044BFD850DD26BB50AA53A
S31508003AF0FAA8B5356C98B242D6C9BBDB40F9BCAC5E
S31508003B00E36CD832755CDF45CF0DD6DC593DD1ABB9
S31508003B10AC30D9263A00DE518051D7C81661D0BFDD
S31508003B20B5F4B42123C4B3569995BACF0FA5BDB839
S31508003B309EB802280888055FB2D90CC624E90BB1DD
S31508003B40877C6F2F114C6858AB1D61C13D2D66B639
S31508003B509041DC760671DB01BC20D2982A10D5EF9D
S31508003B608985B1711FB5B606A5E4BF9F33D4B8E8F9
S31508003B70A2C9077834F9000F8EA8099618980EE19D
S31508003B80BB0D6A7F2D3D6D08976C6491015C63E6F9
S31508003B90F4516B6B62616C1CD83065854E0062F21D
S31508003BA0ED95066C7BA5011BC1F4088257C40FF579
S31508003BB0C6D9B06550E9B712EAB8BE8B7C88B9FC9D
S31508003BC0DF1DDD62492DDA15F37CD38C654CD4FBF9
S31508003BD05861B24DCE51B53A7400BCA3E230BBD49D
S31508003BE041A5DF4AD795D83D6DC4D1A4FBF4D6D3F9
S31508003BF06AE96943FCD96E34468867ADD0B860DA9D
S31508003C00732D0444E51D03335F4C0AAAC97C0DDDF8
S31508003C103C710550AA41022710100BBE86200CC91C
S31508003C2025B56857B3856F2009D466B99FE461CE78
S31508003C300EF9DE5E98C9D9292298D0B0B4A8D7C79C
S31508003C40173DB359810DB42E3B5CBDB7AD6CBAC0F8
S31508003C502083B8EDB6B3BF9A0CE2B6039AD2B17414
S31508003C603947D5EAAF77D29D1526DB048316DC7370
S31508003C70120B63E3843B64943E6A6D0DA85A6A7A14
S31508003C800BCF0EE49DFF099327AE000AB19E077D70
S31508003C9044930FF0D2A3088768F2011EFEC2066994
S31508003CA05D5762F7CB67658071366C19E7066B6EF0
S31508003CB0761BD4FEE02BD3895A7ADA10CC4ADD6714
S31508003CC06FDFB9F9F9EFBE8E43BEB717D58EB06070
S31508003CD0E8A3D6D67E93D1A1C4C2D83852F2DF4F14
S31508003CE0F167BBD16757BCA6DD06B53F4B36B24870
S31508003CF0DA2B0DD84C1B0AAFF64A0336607A044114
S31508003D00C3EF60DF55DF67A8EF8E6E3179BE69466F
S31508003D108CB361CB1A8366BCA0D26F2536E2685293
S31508003D2095770CCC03470BBBB91602222F260555EF
S31508003D30BE3BBAC5280BBDB2925AB42B046AB35C13
S31508003D40A7FFD7C231CFD0B58B9ED92C1DAEDE5B6F
S31508003D50B0C2649B26F263EC9CA36A750A936D0253
S31508003D60A906099C3F360EEB8567077213570005AF
S31508003D70824ABF95147AB8E2AE2BB17B381BB60CD3
S31508003D809B8ED2920DBED5E5B7EFDC7C21DFDB0B2F
S31508003D90D4D2D38642E2D4F1F8B3DD686E83DA1F53
S31508003DA0CD16BE815B26B9F6E177B06F7747B718AF
S31508003DB0E65A0888706A0FFFCA3B06665C0B011153
S31508003DC0FF9E658F69AE62F8D3FF6B6145CF6C16AF
S31508003DD078E20AA0EED20DD75483044EC2B3033953
S31508003DE0612667A7F71660D04D476949DB776E3EAF
S31508003DF04A6AD1AEDC5AD6D9660BDF40F03BD837D3
S31508003E0053AEBCA9C59EBBDE7FCFB247E9FFB5302E
S31508003E101CF2BDBD8AC2BACA3093B353A6A3B42452
S31508003E200536D0BA9306D7CD2957DE54BF67D923AE
S31508003E302E7A66B3B84A61C4021B685D942B6F2A52
S31508003E4037BE0BB4A18E0CC31BDF055A8DEF022DAE
S31508003E50010601000400000000127A0020A10700F4
S31508003E600100000001020D0100010000130000001E
S31508003E70700000001400000070000000150000002B
S31508003E807000000000000000000080FF060000002F
S31508003E90000000000000000002020000000C0140C3
S31508003EA00F0002000010014005000200001001404A
S31508003EB00400020000190020B00100000000000004
S31508003EC000190020C00100000400000004190020A9
S31508003ED0B00100000000000004190020C001000025
S31508003EE004000000000801400C020300000C014019
S31508003EF00902030000140140010203000008014002
S31508003F000B070000000C01400807000000140140E0
S31508003F1000070000FCFFFFFFFCFFFFFF0002000098
S30908003F200800002067
S31508003F24580800200008000000000000F4020020E1
S31508003F345C030020C4030020000000000000000009
S31508003F44000000000000000000000000000000005F
S31508003F54000000000000000000000000000000004F
S31508003F64000000000000000000000000000000003F
S31508003F74000000000000000000000000000000002F
S31508003F84000000000000000000000000000000001F
S31508003F94000000000000000000000000000000000F
S31508003FA400000000000000000000000000000000FF
S31508003FB400000000000000000000000000000000EF
S31508003FC400000000000000000000000000000000DF
S31508003FD401000000000000000E33CDAB34126DE67C
S31508003FE4ECDE05000B0000000000000000000000E5
S31508003FF400000000000000000000000000000000AF
S31508004004000000000000000000000000000000009E
S31508004014000000000000000000000000000000008E
S31508004024000000000000000000000000000000007E
S3150800435408000020000000000000000034040020CB
S31508004364340400203C0400203C04002044040020BB
S31508004374440400204C0400204C040020540400206B
S31508004384540400205C0400205C040020640400201B
S31508004394640400206C0400206C04002074040020CB
S315080043A4740400207C0400207C040020840400207B
S315080043B4840400208C0400208C040020940400202B
S315080043C4940400209C0400209C040020A4040020DB
S315080043D4A4040020AC040020AC040020B40400208B
S315080043E4B4040020BC040020BC040020C40400203B
S315080043F4C4040020CC040020CC040020D4040020EB
S31508004404D4040020DC040020DC040020E40400209A
S31508004414E4040020EC040020EC040020F40400204A
S31508004424F4040020FC040020FC04002004050020F9
S31508004434040500200C0500200C05002014050020A6
S31508004444140500201C0500201C0500202405002056
S31508004454240500202C0500202C0500203405002006
S31508004464340500203C0500203C05002044050020B6
S31508004474440500204C0500204C0500205405002066
S31508004484540500205C0500205C0500206405002016
S31508004494640500206C0500206C05002074050020C6
S315080044A4740500207C0500207C0500208405002076
S315080044B4840500208C0500208C0500209405002026
S315080044C4940500209C0500209C050020A4050020D6
S315080044D4A4050020AC050020AC050020B405002086
S315080044E4B4050020BC050020BC050020C405002036
S315080044F4C4050020CC050020CC050020D4050020E6
S31508004504D4050020DC050020DC050020E405002095
S31508004514E4050020EC050020EC050020F405002045
S31508004524F4050020FC050020FC05002004060020F4
S31508004534040600200C0600200C06002014060020A1
S31508004544140600201C0600201C0600202406002051
S31508004554240600202C0600202C0600203406002001
S31508004564340600203C0600203C06002044060020B1
S31508004574440600204C0600204C0600205406002061
S31508004584540600205C0600205C0600206406002011
S31508004594640600206C0600206C06002074060020C1
S315080045A4740600207C0600207C0600208406002071
S315080045B4840600208C0600208C0600209406002021
S315080045C4940600209C0600209C060020A4060020D1
S315080045D4A4060020AC060020AC060020B406002081
S315080045E4B4060020BC060020BC060020C406002031
S315080045F4C4060020CC060020CC060020D4060020E1
S31508004604D4060020DC060020DC060020E406002090
S31508004614E4060020EC060020EC060020F406002040
S31508004624F4060020FC060020FC06002004070020EF
S31508004634040700200C0700200C070020140700209C
S31508004644140700201C0700201C070020240700204C
S31508004654240700202C0700202C07002034070020FC
S31508004664340700203C0700203C07002044070020AC
S31508004674440700204C0700204C070020540700205C
S31508004684540700205C0700205C070020640700200C
S31508004694640700206C0700206C07002074070020BC
S315080046A4740700207C0700207C070020840700206C
S315080046B4840700208C0700208C070020940700201C
S315080046C4940700209C0700209C070020A4070020CC
S315080046D4A4070020AC070020AC070020B40700207C
S315080046E4B4070020BC070020BC070020C40700202C
S315080046F4C4070020CC070020CC070020D4070020DC
S31508004704D4070020DC070020DC070020E40700208B
S31508004714E4070020EC070020EC070020F40700203B
S31508004724F4070020FC070020FC07002004080020EA
S31508004734040800200C0800200C0800201408002097
S31508004744140800201C0800201C0800202408002047
S31508004754240800202C0800202C0800200000020051
S31108004764FFFFFFFFFC1000200E00000005
S70508001B15C2
